{
  "_format": "hh-sol-artifact-1",
  "contractName": "Test1",
  "sourceName": "contracts/Test1.sol",
  "abi": [
    {
      "inputs": [],
      "name": "dummy",
      "outputs": [
        {
          "internalType": "uint256",
          "name": "",
          "type": "uint256"
        }
      ],
      "stateMutability": "pure",
      "type": "function"
    }
  ],
  "bytecode": "0x608060405234801561001057600080fd5b5060b68061001f6000396000f3fe6080604052348015600f57600080fd5b506004361060285760003560e01c806332e43a1114602d575b600080fd5b60336047565b604051603e91906067565b60405180910390f35b60006001905090565b6000819050919050565b6061816050565b82525050565b6000602082019050607a6000830184605a565b9291505056fea2646970667358221220b74503eec2656eb9abfe37a05f3d00adc51002f8d6dc211ccc1a5add8408a33f64736f6c63430008110033",
  "linkReferences": {},
  "deployedLinkReferences": {}
}