{
  "_format": "hh-sol-artifact-1",
  "contractName": "Test",
  "sourceName": "contracts/Test.sol",
  "abi": [
    {
      "anonymous": false,
      "inputs": [
        {
          "indexed": false,
          "internalType": "string",
          "name": "alert",
          "type": "string"
        }
      ],
      "name": "Message",
      "type": "event"
    },
    {
      "inputs": [
        {
          "internalType": "string",
          "name": "blogname",
          "type": "string"
        },
        {
          "internalType": "string",
          "name": "time",
          "type": "string"
        }
      ],
      "name": "AddBlog",
      "outputs": [],
      "stateMutability": "nonpayable",
      "type": "function"
    },
    {
      "inputs": [],
      "name": "depositeetherto_contract",
      "outputs": [],
      "stateMutability": "payable",
      "type": "function"
    },
    {
      "inputs": [
        {
          "internalType": "address",
          "name": "useraddress",
          "type": "address"
        }
      ],
      "name": "getBlog",
      "outputs": [
        {
          "components": [
            {
              "internalType": "string",
              "name": "blogname",
              "type": "string"
            },
            {
              "internalType": "string",
              "name": "time",
              "type": "string"
            }
          ],
          "internalType": "struct Test1.Blog[]",
          "name": "blogs",
          "type": "tuple[]"
        }
      ],
      "stateMutability": "view",
      "type": "function"
    },
    {
      "inputs": [
        {
          "internalType": "address",
          "name": "rec",
          "type": "address"
        }
      ],
      "name": "getbalance",
      "outputs": [
        {
          "internalType": "uint256",
          "name": "",
          "type": "uint256"
        }
      ],
      "stateMutability": "view",
      "type": "function"
    },
    {
      "inputs": [],
      "name": "getcontractbalance",
      "outputs": [
        {
          "internalType": "uint256",
          "name": "",
          "type": "uint256"
        }
      ],
      "stateMutability": "view",
      "type": "function"
    },
    {
      "inputs": [
        {
          "internalType": "address",
          "name": "rec",
          "type": "address"
        }
      ],
      "name": "transferbalance",
      "outputs": [],
      "stateMutability": "payable",
      "type": "function"
    },
    {
      "stateMutability": "payable",
      "type": "receive"
    }
  ],
  "bytecode": "0x608060405234801561001057600080fd5b50610c82806100206000396000f3fe6080604052600436106100595760003560e01c806368116177146100655780639fa92ebc146100a2578063b07b7578146100df578063db15b3ba14610108578063ed20369714610112578063f28bf1461461012e57610060565b3661006057005b600080fd5b34801561007157600080fd5b5061008c6004803603810190610087919061052b565b610159565b6040516100999190610571565b60405180910390f35b3480156100ae57600080fd5b506100c960048036038101906100c4919061052b565b61017a565b6040516100d69190610722565b60405180910390f35b3480156100eb57600080fd5b5061010660048036038101906101019190610879565b61033b565b005b61011061041e565b005b61012c6004803603810190610127919061052b565b610467565b005b34801561013a57600080fd5b506101436104b1565b6040516101509190610571565b60405180910390f35b60008173ffffffffffffffffffffffffffffffffffffffff16319050919050565b60606000808373ffffffffffffffffffffffffffffffffffffffff1673ffffffffffffffffffffffffffffffffffffffff168152602001908152602001600020805480602002602001604051908101604052809291908181526020016000905b82821015610330578382906000526020600020906002020160405180604001604052908160008201805461020d90610920565b80601f016020809104026020016040519081016040528092919081815260200182805461023990610920565b80156102865780601f1061025b57610100808354040283529160200191610286565b820191906000526020600020905b81548152906001019060200180831161026957829003601f168201915b5050505050815260200160018201805461029f90610920565b80601f01602080910402602001604051908101604052809291908181526020018280546102cb90610920565b80156103185780601f106102ed57610100808354040283529160200191610318565b820191906000526020600020905b8154815290600101906020018083116102fb57829003601f168201915b505050505081525050815260200190600101906101da565b505050509050919050565b6000803373ffffffffffffffffffffffffffffffffffffffff1673ffffffffffffffffffffffffffffffffffffffff168152602001908152602001600020604051806040016040528084815260200183815250908060018154018082558091505060019003906000526020600020906002020160009091909190915060008201518160000190816103cc9190610afd565b5060208201518160010190816103e29190610afd565b5050507f51a7f65c6325882f237d4aeb43228179cfad48b868511d508e24b4437a81913760405161041290610c2c565b60405180910390a15050565b3073ffffffffffffffffffffffffffffffffffffffff166108fc349081150290604051600060405180830381858888f19350505050158015610464573d6000803e3d6000fd5b50565b8073ffffffffffffffffffffffffffffffffffffffff166108fc349081150290604051600060405180830381858888f193505050501580156104ad573d6000803e3d6000fd5b5050565b600047905090565b6000604051905090565b600080fd5b600080fd5b600073ffffffffffffffffffffffffffffffffffffffff82169050919050565b60006104f8826104cd565b9050919050565b610508816104ed565b811461051357600080fd5b50565b600081359050610525816104ff565b92915050565b600060208284031215610541576105406104c3565b5b600061054f84828501610516565b91505092915050565b6000819050919050565b61056b81610558565b82525050565b60006020820190506105866000830184610562565b92915050565b600081519050919050565b600082825260208201905092915050565b6000819050602082019050919050565b600081519050919050565b600082825260208201905092915050565b60005b838110156105f25780820151818401526020810190506105d7565b60008484015250505050565b6000601f19601f8301169050919050565b600061061a826105b8565b61062481856105c3565b93506106348185602086016105d4565b61063d816105fe565b840191505092915050565b60006040830160008301518482036000860152610665828261060f565b9150506020830151848203602086015261067f828261060f565b9150508091505092915050565b60006106988383610648565b905092915050565b6000602082019050919050565b60006106b88261058c565b6106c28185610597565b9350836020820285016106d4856105a8565b8060005b8581101561071057848403895281516106f1858261068c565b94506106fc836106a0565b925060208a019950506001810190506106d8565b50829750879550505050505092915050565b6000602082019050818103600083015261073c81846106ad565b905092915050565b600080fd5b600080fd5b7f4e487b7100000000000000000000000000000000000000000000000000000000600052604160045260246000fd5b610786826105fe565b810181811067ffffffffffffffff821117156107a5576107a461074e565b5b80604052505050565b60006107b86104b9565b90506107c4828261077d565b919050565b600067ffffffffffffffff8211156107e4576107e361074e565b5b6107ed826105fe565b9050602081019050919050565b82818337600083830152505050565b600061081c610817846107c9565b6107ae565b90508281526020810184848401111561083857610837610749565b5b6108438482856107fa565b509392505050565b600082601f8301126108605761085f610744565b5b8135610870848260208601610809565b91505092915050565b600080604083850312156108905761088f6104c3565b5b600083013567ffffffffffffffff8111156108ae576108ad6104c8565b5b6108ba8582860161084b565b925050602083013567ffffffffffffffff8111156108db576108da6104c8565b5b6108e78582860161084b565b9150509250929050565b7f4e487b7100000000000000000000000000000000000000000000000000000000600052602260045260246000fd5b6000600282049050600182168061093857607f821691505b60208210810361094b5761094a6108f1565b5b50919050565b60008190508160005260206000209050919050565b60006020601f8301049050919050565b600082821b905092915050565b6000600883026109b37fffffffffffffffffffffffffffffffffffffffffffffffffffffffffffffffff82610976565b6109bd8683610976565b95508019841693508086168417925050509392505050565b6000819050919050565b60006109fa6109f56109f084610558565b6109d5565b610558565b9050919050565b6000819050919050565b610a14836109df565b610a28610a2082610a01565b848454610983565b825550505050565b600090565b610a3d610a30565b610a48818484610a0b565b505050565b5b81811015610a6c57610a61600082610a35565b600181019050610a4e565b5050565b601f821115610ab157610a8281610951565b610a8b84610966565b81016020851015610a9a578190505b610aae610aa685610966565b830182610a4d565b50505b505050565b600082821c905092915050565b6000610ad460001984600802610ab6565b1980831691505092915050565b6000610aed8383610ac3565b9150826002028217905092915050565b610b06826105b8565b67ffffffffffffffff811115610b1f57610b1e61074e565b5b610b298254610920565b610b34828285610a70565b600060209050601f831160018114610b675760008415610b55578287015190505b610b5f8582610ae1565b865550610bc7565b601f198416610b7586610951565b60005b82811015610b9d57848901518255600182019150602085019450602081019050610b78565b86831015610bba5784890151610bb6601f891682610ac3565b8355505b6001600288020188555050505b505050505050565b600082825260208201905092915050565b7f426c6f6720686173206265656e2061646465642e2e2e00000000000000000000600082015250565b6000610c16601683610bcf565b9150610c2182610be0565b602082019050919050565b60006020820190508181036000830152610c4581610c09565b905091905056fea26469706673582212205683091de6834641cab6be73c44456b46573d41e15b69645c0ceb8efcbbbeac764736f6c63430008110033",
  "linkReferences": {},
  "deployedLinkReferences": {}
}