{
  "_format": "hh-sol-artifact-1",
  "contractName": "Test",
  "sourceName": "contracts/Test.sol",
  "abi": [
    {
      "anonymous": false,
      "inputs": [
        {
          "indexed": false,
          "internalType": "string",
          "name": "alert",
          "type": "string"
        }
      ],
      "name": "Message",
      "type": "event"
    },
    {
      "inputs": [
        {
          "internalType": "string",
          "name": "blogname",
          "type": "string"
        },
        {
          "internalType": "string",
          "name": "time",
          "type": "string"
        }
      ],
      "name": "AddBlog",
      "outputs": [],
      "stateMutability": "nonpayable",
      "type": "function"
    },
    {
      "inputs": [
        {
          "internalType": "address",
          "name": "useraddress",
          "type": "address"
        }
      ],
      "name": "getBlog",
      "outputs": [
        {
          "components": [
            {
              "internalType": "string",
              "name": "blogname",
              "type": "string"
            },
            {
              "internalType": "string",
              "name": "time",
              "type": "string"
            }
          ],
          "internalType": "struct Test1.Blog[]",
          "name": "blogs",
          "type": "tuple[]"
        }
      ],
      "stateMutability": "view",
      "type": "function"
    },
    {
      "stateMutability": "payable",
      "type": "receive"
    }
  ],
  "bytecode": "0x608060405234801561001057600080fd5b50610ae2806100206000396000f3fe60806040526004361061002d5760003560e01c80639fa92ebc14610039578063b07b75781461007657610034565b3661003457005b600080fd5b34801561004557600080fd5b50610060600480360381019061005b91906103b5565b61009f565b60405161006d9190610578565b60405180910390f35b34801561008257600080fd5b5061009d600480360381019061009891906106cf565b610260565b005b60606000808373ffffffffffffffffffffffffffffffffffffffff1673ffffffffffffffffffffffffffffffffffffffff168152602001908152602001600020805480602002602001604051908101604052809291908181526020016000905b82821015610255578382906000526020600020906002020160405180604001604052908160008201805461013290610776565b80601f016020809104026020016040519081016040528092919081815260200182805461015e90610776565b80156101ab5780601f10610180576101008083540402835291602001916101ab565b820191906000526020600020905b81548152906001019060200180831161018e57829003601f168201915b505050505081526020016001820180546101c490610776565b80601f01602080910402602001604051908101604052809291908181526020018280546101f090610776565b801561023d5780601f106102125761010080835404028352916020019161023d565b820191906000526020600020905b81548152906001019060200180831161022057829003601f168201915b505050505081525050815260200190600101906100ff565b505050509050919050565b6000803373ffffffffffffffffffffffffffffffffffffffff1673ffffffffffffffffffffffffffffffffffffffff168152602001908152602001600020604051806040016040528084815260200183815250908060018154018082558091505060019003906000526020600020906002020160009091909190915060008201518160000190816102f1919061095d565b506020820151816001019081610307919061095d565b5050507f51a7f65c6325882f237d4aeb43228179cfad48b868511d508e24b4437a81913760405161033790610a8c565b60405180910390a15050565b6000604051905090565b600080fd5b600080fd5b600073ffffffffffffffffffffffffffffffffffffffff82169050919050565b600061038282610357565b9050919050565b61039281610377565b811461039d57600080fd5b50565b6000813590506103af81610389565b92915050565b6000602082840312156103cb576103ca61034d565b5b60006103d9848285016103a0565b91505092915050565b600081519050919050565b600082825260208201905092915050565b6000819050602082019050919050565b600081519050919050565b600082825260208201905092915050565b60005b8381101561044857808201518184015260208101905061042d565b60008484015250505050565b6000601f19601f8301169050919050565b60006104708261040e565b61047a8185610419565b935061048a81856020860161042a565b61049381610454565b840191505092915050565b600060408301600083015184820360008601526104bb8282610465565b915050602083015184820360208601526104d58282610465565b9150508091505092915050565b60006104ee838361049e565b905092915050565b6000602082019050919050565b600061050e826103e2565b61051881856103ed565b93508360208202850161052a856103fe565b8060005b85811015610566578484038952815161054785826104e2565b9450610552836104f6565b925060208a0199505060018101905061052e565b50829750879550505050505092915050565b600060208201905081810360008301526105928184610503565b905092915050565b600080fd5b600080fd5b7f4e487b7100000000000000000000000000000000000000000000000000000000600052604160045260246000fd5b6105dc82610454565b810181811067ffffffffffffffff821117156105fb576105fa6105a4565b5b80604052505050565b600061060e610343565b905061061a82826105d3565b919050565b600067ffffffffffffffff82111561063a576106396105a4565b5b61064382610454565b9050602081019050919050565b82818337600083830152505050565b600061067261066d8461061f565b610604565b90508281526020810184848401111561068e5761068d61059f565b5b610699848285610650565b509392505050565b600082601f8301126106b6576106b561059a565b5b81356106c684826020860161065f565b91505092915050565b600080604083850312156106e6576106e561034d565b5b600083013567ffffffffffffffff81111561070457610703610352565b5b610710858286016106a1565b925050602083013567ffffffffffffffff81111561073157610730610352565b5b61073d858286016106a1565b9150509250929050565b7f4e487b7100000000000000000000000000000000000000000000000000000000600052602260045260246000fd5b6000600282049050600182168061078e57607f821691505b6020821081036107a1576107a0610747565b5b50919050565b60008190508160005260206000209050919050565b60006020601f8301049050919050565b600082821b905092915050565b6000600883026108097fffffffffffffffffffffffffffffffffffffffffffffffffffffffffffffffff826107cc565b61081386836107cc565b95508019841693508086168417925050509392505050565b6000819050919050565b6000819050919050565b600061085a6108556108508461082b565b610835565b61082b565b9050919050565b6000819050919050565b6108748361083f565b61088861088082610861565b8484546107d9565b825550505050565b600090565b61089d610890565b6108a881848461086b565b505050565b5b818110156108cc576108c1600082610895565b6001810190506108ae565b5050565b601f821115610911576108e2816107a7565b6108eb846107bc565b810160208510156108fa578190505b61090e610906856107bc565b8301826108ad565b50505b505050565b600082821c905092915050565b600061093460001984600802610916565b1980831691505092915050565b600061094d8383610923565b9150826002028217905092915050565b6109668261040e565b67ffffffffffffffff81111561097f5761097e6105a4565b5b6109898254610776565b6109948282856108d0565b600060209050601f8311600181146109c757600084156109b5578287015190505b6109bf8582610941565b865550610a27565b601f1984166109d5866107a7565b60005b828110156109fd578489015182556001820191506020850194506020810190506109d8565b86831015610a1a5784890151610a16601f891682610923565b8355505b6001600288020188555050505b505050505050565b600082825260208201905092915050565b7f426c6f6720686173206265656e2061646465642e2e2e00000000000000000000600082015250565b6000610a76601683610a2f565b9150610a8182610a40565b602082019050919050565b60006020820190508181036000830152610aa581610a69565b905091905056fea2646970667358221220e56829b049eafe4c26cf3bcd1904404da916e376815ab1bdfd352739768f53c964736f6c63430008110033",
  "linkReferences": {},
  "deployedLinkReferences": {}
}