{
  "_format": "hh-sol-artifact-1",
  "contractName": "Test",
  "sourceName": "contracts/Test.sol",
  "abi": [
    {
      "inputs": [
        {
          "internalType": "uint256",
          "name": "x",
          "type": "uint256"
        },
        {
          "internalType": "uint256",
          "name": "y",
          "type": "uint256"
        }
      ],
      "name": "add",
      "outputs": [
        {
          "internalType": "uint256",
          "name": "",
          "type": "uint256"
        }
      ],
      "stateMutability": "pure",
      "type": "function"
    },
    {
      "inputs": [],
      "name": "dummy",
      "outputs": [
        {
          "internalType": "uint256",
          "name": "",
          "type": "uint256"
        }
      ],
      "stateMutability": "pure",
      "type": "function"
    },
    {
      "inputs": [],
      "name": "getowner",
      "outputs": [
        {
          "internalType": "address",
          "name": "",
          "type": "address"
        }
      ],
      "stateMutability": "view",
      "type": "function"
    },
    {
      "inputs": [
        {
          "internalType": "uint256",
          "name": "x",
          "type": "uint256"
        },
        {
          "internalType": "uint256",
          "name": "y",
          "type": "uint256"
        }
      ],
      "name": "subtract",
      "outputs": [
        {
          "internalType": "uint256",
          "name": "",
          "type": "uint256"
        }
      ],
      "stateMutability": "pure",
      "type": "function"
    },
    {
      "stateMutability": "payable",
      "type": "receive"
    }
  ],
  "bytecode": "0x608060405234801561001057600080fd5b5061032a806100206000396000f3fe6080604052600436106100435760003560e01c806332e43a111461004f5780633ef5e4451461007a578063771602f7146100b7578063fe0174bd146100f45761004a565b3661004a57005b600080fd5b34801561005b57600080fd5b5061006461011f565b6040516100719190610175565b60405180910390f35b34801561008657600080fd5b506100a1600480360381019061009c91906101c1565b610128565b6040516100ae9190610175565b60405180910390f35b3480156100c357600080fd5b506100de60048036038101906100d991906101c1565b61013e565b6040516100eb9190610175565b60405180910390f35b34801561010057600080fd5b50610109610154565b6040516101169190610242565b60405180910390f35b60006001905090565b60008183610136919061028c565b905092915050565b6000818361014c91906102c0565b905092915050565b600033905090565b6000819050919050565b61016f8161015c565b82525050565b600060208201905061018a6000830184610166565b92915050565b600080fd5b61019e8161015c565b81146101a957600080fd5b50565b6000813590506101bb81610195565b92915050565b600080604083850312156101d8576101d7610190565b5b60006101e6858286016101ac565b92505060206101f7858286016101ac565b9150509250929050565b600073ffffffffffffffffffffffffffffffffffffffff82169050919050565b600061022c82610201565b9050919050565b61023c81610221565b82525050565b60006020820190506102576000830184610233565b92915050565b7f4e487b7100000000000000000000000000000000000000000000000000000000600052601160045260246000fd5b60006102978261015c565b91506102a28361015c565b92508282039050818111156102ba576102b961025d565b5b92915050565b60006102cb8261015c565b91506102d68361015c565b92508282019050808211156102ee576102ed61025d565b5b9291505056fea264697066735822122041722735aa3c314560403014d740f33be8b69ed4c2aed22ef19327a7083ed5f764736f6c63430008110033",
  "linkReferences": {},
  "deployedLinkReferences": {}
}