{
  "_format": "hh-sol-artifact-1",
  "contractName": "Test",
  "sourceName": "contracts/Test.sol",
  "abi": [
    {
      "anonymous": false,
      "inputs": [
        {
          "indexed": false,
          "internalType": "string",
          "name": "error",
          "type": "string"
        }
      ],
      "name": "Message",
      "type": "event"
    },
    {
      "inputs": [
        {
          "internalType": "uint256",
          "name": "x",
          "type": "uint256"
        },
        {
          "internalType": "uint256",
          "name": "y",
          "type": "uint256"
        }
      ],
      "name": "add",
      "outputs": [
        {
          "internalType": "uint256",
          "name": "",
          "type": "uint256"
        }
      ],
      "stateMutability": "nonpayable",
      "type": "function"
    },
    {
      "inputs": [],
      "name": "getowner",
      "outputs": [
        {
          "internalType": "address",
          "name": "",
          "type": "address"
        }
      ],
      "stateMutability": "view",
      "type": "function"
    },
    {
      "inputs": [
        {
          "internalType": "uint256",
          "name": "x",
          "type": "uint256"
        },
        {
          "internalType": "uint256",
          "name": "y",
          "type": "uint256"
        }
      ],
      "name": "subtract",
      "outputs": [
        {
          "internalType": "uint256",
          "name": "",
          "type": "uint256"
        }
      ],
      "stateMutability": "pure",
      "type": "function"
    },
    {
      "stateMutability": "payable",
      "type": "receive"
    }
  ],
  "bytecode": "0x608060405234801561001057600080fd5b5061039d806100206000396000f3fe6080604052600436106100385760003560e01c80633ef5e44514610044578063771602f714610081578063fe0174bd146100be5761003f565b3661003f57005b600080fd5b34801561005057600080fd5b5061006b6004803603810190610066919061018d565b6100e9565b60405161007891906101dc565b60405180910390f35b34801561008d57600080fd5b506100a860048036038101906100a3919061018d565b6100ff565b6040516100b591906101dc565b60405180910390f35b3480156100ca57600080fd5b506100d361014a565b6040516100e09190610238565b60405180910390f35b600081836100f79190610282565b905092915050565b60007f51a7f65c6325882f237d4aeb43228179cfad48b868511d508e24b4437a81913760405161012e90610313565b60405180910390a181836101429190610333565b905092915050565b600033905090565b600080fd5b6000819050919050565b61016a81610157565b811461017557600080fd5b50565b60008135905061018781610161565b92915050565b600080604083850312156101a4576101a3610152565b5b60006101b285828601610178565b92505060206101c385828601610178565b9150509250929050565b6101d681610157565b82525050565b60006020820190506101f160008301846101cd565b92915050565b600073ffffffffffffffffffffffffffffffffffffffff82169050919050565b6000610222826101f7565b9050919050565b61023281610217565b82525050565b600060208201905061024d6000830184610229565b92915050565b7f4e487b7100000000000000000000000000000000000000000000000000000000600052601160045260246000fd5b600061028d82610157565b915061029883610157565b92508282039050818111156102b0576102af610253565b5b92915050565b600082825260208201905092915050565b7f4f6b6b6b6b6b6b6b6b6b6b6b6b6b6b0000000000000000000000000000000000600082015250565b60006102fd600f836102b6565b9150610308826102c7565b602082019050919050565b6000602082019050818103600083015261032c816102f0565b9050919050565b600061033e82610157565b915061034983610157565b925082820190508082111561036157610360610253565b5b9291505056fea2646970667358221220583fa6df81ecfe0b218897e3efad97fec6f8bd3803eb757d8a2727459594515864736f6c63430008110033",
  "linkReferences": {},
  "deployedLinkReferences": {}
}